{
  "_format": "hh-sol-artifact-1",
  "contractName": "CollateralizedLoan",
  "sourceName": "contracts/Collateralized Loan.sol",
  "abi": [
    {
      "anonymous": false,
      "inputs": [
        {
          "indexed": true,
          "internalType": "uint256",
          "name": "loanId",
          "type": "uint256"
        },
        {
          "indexed": true,
          "internalType": "address",
          "name": "lender",
          "type": "address"
        },
        {
          "indexed": false,
          "internalType": "uint256",
          "name": "amount",
          "type": "uint256"
        }
      ],
      "name": "CollateralClaimed",
      "type": "event"
    },
    {
      "anonymous": false,
      "inputs": [
        {
          "indexed": true,
          "internalType": "uint256",
          "name": "loanId",
          "type": "uint256"
        },
        {
          "indexed": true,
          "internalType": "address",
          "name": "lender",
          "type": "address"
        },
        {
          "indexed": false,
          "internalType": "uint256",
          "name": "amount",
          "type": "uint256"
        }
      ],
      "name": "LoanFunded",
      "type": "event"
    },
    {
      "anonymous": false,
      "inputs": [
        {
          "indexed": true,
          "internalType": "uint256",
          "name": "loanId",
          "type": "uint256"
        },
        {
          "indexed": true,
          "internalType": "address",
          "name": "borrower",
          "type": "address"
        },
        {
          "indexed": false,
          "internalType": "uint256",
          "name": "amount",
          "type": "uint256"
        }
      ],
      "name": "LoanRepaid",
      "type": "event"
    },
    {
      "anonymous": false,
      "inputs": [
        {
          "indexed": true,
          "internalType": "uint256",
          "name": "loanId",
          "type": "uint256"
        },
        {
          "indexed": true,
          "internalType": "address",
          "name": "borrower",
          "type": "address"
        },
        {
          "indexed": false,
          "internalType": "uint256",
          "name": "collateralAmount",
          "type": "uint256"
        },
        {
          "indexed": false,
          "internalType": "uint256",
          "name": "loanAmount",
          "type": "uint256"
        },
        {
          "indexed": false,
          "internalType": "uint256",
          "name": "interestRate",
          "type": "uint256"
        },
        {
          "indexed": false,
          "internalType": "uint256",
          "name": "dueDate",
          "type": "uint256"
        }
      ],
      "name": "LoanRequested",
      "type": "event"
    },
    {
      "inputs": [
        {
          "internalType": "uint256",
          "name": "_loanId",
          "type": "uint256"
        }
      ],
      "name": "claimCollateral",
      "outputs": [],
      "stateMutability": "nonpayable",
      "type": "function"
    },
    {
      "inputs": [
        {
          "internalType": "uint256",
          "name": "_interestRate",
          "type": "uint256"
        },
        {
          "internalType": "uint256",
          "name": "_duration",
          "type": "uint256"
        }
      ],
      "name": "depositCollateralAndRequestLoan",
      "outputs": [],
      "stateMutability": "payable",
      "type": "function"
    },
    {
      "inputs": [
        {
          "internalType": "uint256",
          "name": "_loanId",
          "type": "uint256"
        }
      ],
      "name": "fundLoan",
      "outputs": [],
      "stateMutability": "payable",
      "type": "function"
    },
    {
      "inputs": [
        {
          "internalType": "uint256",
          "name": "",
          "type": "uint256"
        }
      ],
      "name": "loans",
      "outputs": [
        {
          "internalType": "address payable",
          "name": "borrower",
          "type": "address"
        },
        {
          "internalType": "address payable",
          "name": "lender",
          "type": "address"
        },
        {
          "internalType": "uint256",
          "name": "collateralAmount",
          "type": "uint256"
        },
        {
          "internalType": "uint256",
          "name": "loanAmount",
          "type": "uint256"
        },
        {
          "internalType": "uint256",
          "name": "interestRate",
          "type": "uint256"
        },
        {
          "internalType": "uint256",
          "name": "dueDate",
          "type": "uint256"
        },
        {
          "internalType": "bool",
          "name": "isFunded",
          "type": "bool"
        },
        {
          "internalType": "bool",
          "name": "isRepaid",
          "type": "bool"
        },
        {
          "internalType": "bool",
          "name": "collateralClaimed",
          "type": "bool"
        }
      ],
      "stateMutability": "view",
      "type": "function"
    },
    {
      "inputs": [],
      "name": "nextLoanId",
      "outputs": [
        {
          "internalType": "uint256",
          "name": "",
          "type": "uint256"
        }
      ],
      "stateMutability": "view",
      "type": "function"
    },
    {
      "inputs": [
        {
          "internalType": "uint256",
          "name": "_loanId",
          "type": "uint256"
        }
      ],
      "name": "repayLoan",
      "outputs": [],
      "stateMutability": "payable",
      "type": "function"
    }
  ],
  "bytecode": "0x608060405234801561001057600080fd5b506117e4806100206000396000f3fe6080604052600436106100555760003560e01c80638337cf8f1461005a578063846b909a1461007657806387c5145914610092578063ab7b1c89146100bd578063c49785b4146100d9578063e1ec3c6814610102575b600080fd5b610074600480360381019061006f9190610ea3565b610147565b005b610090600480360381019061008b9190610ee3565b610405565b005b34801561009e57600080fd5b506100a76106c1565b6040516100b49190610f1f565b60405180910390f35b6100d760048036038101906100d29190610ee3565b6106c7565b005b3480156100e557600080fd5b5061010060048036038101906100fb9190610ee3565b610a88565b005b34801561010e57600080fd5b5061012960048036038101906101249190610ee3565b610db3565b60405161013e99989796959493929190610f96565b60405180910390f35b6000341161018a576040517f08c379a000000000000000000000000000000000000000000000000000000000815260040161018190611080565b60405180910390fd5b600081116101cd576040517f08c379a00000000000000000000000000000000000000000000000000000000081526004016101c4906110ec565b60405180910390fd5b60006001549050600160008154809291906101e79061113b565b919050555060003490506000819050600084426102049190611183565b90506040518061012001604052803373ffffffffffffffffffffffffffffffffffffffff168152602001600073ffffffffffffffffffffffffffffffffffffffff1681526020018481526020018381526020018781526020018281526020016000151581526020016000151581526020016000151581525060008086815260200190815260200160002060008201518160000160006101000a81548173ffffffffffffffffffffffffffffffffffffffff021916908373ffffffffffffffffffffffffffffffffffffffff16021790555060208201518160010160006101000a81548173ffffffffffffffffffffffffffffffffffffffff021916908373ffffffffffffffffffffffffffffffffffffffff16021790555060408201518160020155606082015181600301556080820151816004015560a0820151816005015560c08201518160060160006101000a81548160ff02191690831515021790555060e08201518160060160016101000a81548160ff0219169083151502179055506101008201518160060160026101000a81548160ff0219169083151502179055509050503373ffffffffffffffffffffffffffffffffffffffff16847fc8a2bcd3b42e3508cef71e30d8b859819aecaeeb4fdc70998269b264d4b4e33585858a866040516103f594939291906111b7565b60405180910390a3505050505050565b80600154811061044a576040517f08c379a000000000000000000000000000000000000000000000000000000000815260040161044190611248565b60405180910390fd5b8160008082815260200190815260200160002060060160009054906101000a900460ff16156104ae576040517f08c379a00000000000000000000000000000000000000000000000000000000081526004016104a5906112b4565b60405180910390fd5b60008060008581526020019081526020016000209050600073ffffffffffffffffffffffffffffffffffffffff168160000160009054906101000a900473ffffffffffffffffffffffffffffffffffffffff1673ffffffffffffffffffffffffffffffffffffffff1603610557576040517f08c379a000000000000000000000000000000000000000000000000000000000815260040161054e90611320565b60405180910390fd5b8060030154341461059d576040517f08c379a00000000000000000000000000000000000000000000000000000000081526004016105949061138c565b60405180910390fd5b338160010160006101000a81548173ffffffffffffffffffffffffffffffffffffffff021916908373ffffffffffffffffffffffffffffffffffffffff16021790555060018160060160006101000a81548160ff0219169083151502179055508060000160009054906101000a900473ffffffffffffffffffffffffffffffffffffffff1673ffffffffffffffffffffffffffffffffffffffff166108fc82600301549081150290604051600060405180830381858888f1935050505015801561066b573d6000803e3d6000fd5b503373ffffffffffffffffffffffffffffffffffffffff16847fbd7ef6c6281278f6c8ac4ae9ef2f205b52425813c288dd47c377cb6b59c5076e346040516106b39190610f1f565b60405180910390a350505050565b60015481565b80600154811061070c576040517f08c379a000000000000000000000000000000000000000000000000000000000815260040161070390611248565b60405180910390fd5b8160008082815260200190815260200160002060000160009054906101000a900473ffffffffffffffffffffffffffffffffffffffff1673ffffffffffffffffffffffffffffffffffffffff163373ffffffffffffffffffffffffffffffffffffffff16146107b0576040517f08c379a00000000000000000000000000000000000000000000000000000000081526004016107a7906113f8565b60405180910390fd5b600080600085815260200190815260200160002090508060060160009054906101000a900460ff16610817576040517f08c379a000000000000000000000000000000000000000000000000000000000815260040161080e90611464565b60405180910390fd5b8060060160019054906101000a900460ff1615610869576040517f08c379a0000000000000000000000000000000000000000000000000000000008152600401610860906114d0565b60405180910390fd5b80600501544211156108b0576040517f08c379a00000000000000000000000000000000000000000000000000000000081526004016108a79061153c565b60405180910390fd5b60006064826004015483600301546108c8919061155c565b6108d291906115cd565b905060008183600301546108e69190611183565b905080341461092a576040517f08c379a00000000000000000000000000000000000000000000000000000000081526004016109219061164a565b60405180910390fd5b60018360060160016101000a81548160ff0219169083151502179055508260010160009054906101000a900473ffffffffffffffffffffffffffffffffffffffff1673ffffffffffffffffffffffffffffffffffffffff166108fc829081150290604051600060405180830381858888f193505050501580156109b1573d6000803e3d6000fd5b50600083600201549050600084600201819055508360000160009054906101000a900473ffffffffffffffffffffffffffffffffffffffff1673ffffffffffffffffffffffffffffffffffffffff166108fc829081150290604051600060405180830381858888f19350505050158015610a2f573d6000803e3d6000fd5b503373ffffffffffffffffffffffffffffffffffffffff16877f512d3e65b3e58c2187bb1872aa435dba5bd09c1c03823ba56ab70aac411e4a2134604051610a779190610f1f565b60405180910390a350505050505050565b806001548110610acd576040517f08c379a0000000000000000000000000000000000000000000000000000000008152600401610ac490611248565b60405180910390fd5b8160008082815260200190815260200160002060010160009054906101000a900473ffffffffffffffffffffffffffffffffffffffff1673ffffffffffffffffffffffffffffffffffffffff163373ffffffffffffffffffffffffffffffffffffffff1614610b71576040517f08c379a0000000000000000000000000000000000000000000000000000000008152600401610b68906116b6565b60405180910390fd5b600080600085815260200190815260200160002090508060060160009054906101000a900460ff16610bd8576040517f08c379a0000000000000000000000000000000000000000000000000000000008152600401610bcf90611464565b60405180910390fd5b8060060160019054906101000a900460ff1615610c2a576040517f08c379a0000000000000000000000000000000000000000000000000000000008152600401610c21906114d0565b60405180910390fd5b8060060160029054906101000a900460ff1615610c7c576040517f08c379a0000000000000000000000000000000000000000000000000000000008152600401610c7390611722565b60405180910390fd5b80600501544211610cc2576040517f08c379a0000000000000000000000000000000000000000000000000000000008152600401610cb99061178e565b60405180910390fd5b60018160060160026101000a81548160ff021916908315150217905550600081600201549050600082600201819055508160010160009054906101000a900473ffffffffffffffffffffffffffffffffffffffff1673ffffffffffffffffffffffffffffffffffffffff166108fc829081150290604051600060405180830381858888f19350505050158015610d5c573d6000803e3d6000fd5b503373ffffffffffffffffffffffffffffffffffffffff16857fccd631c6a824eeaa91ba67065a44b5c5bc5aa9575248e5fd34144c665470fc3283604051610da49190610f1f565b60405180910390a35050505050565b60006020528060005260406000206000915090508060000160009054906101000a900473ffffffffffffffffffffffffffffffffffffffff16908060010160009054906101000a900473ffffffffffffffffffffffffffffffffffffffff16908060020154908060030154908060040154908060050154908060060160009054906101000a900460ff16908060060160019054906101000a900460ff16908060060160029054906101000a900460ff16905089565b600080fd5b6000819050919050565b610e8081610e6d565b8114610e8b57600080fd5b50565b600081359050610e9d81610e77565b92915050565b60008060408385031215610eba57610eb9610e68565b5b6000610ec885828601610e8e565b9250506020610ed985828601610e8e565b9150509250929050565b600060208284031215610ef957610ef8610e68565b5b6000610f0784828501610e8e565b91505092915050565b610f1981610e6d565b82525050565b6000602082019050610f346000830184610f10565b92915050565b600073ffffffffffffffffffffffffffffffffffffffff82169050919050565b6000610f6582610f3a565b9050919050565b610f7581610f5a565b82525050565b60008115159050919050565b610f9081610f7b565b82525050565b600061012082019050610fac600083018c610f6c565b610fb9602083018b610f6c565b610fc6604083018a610f10565b610fd36060830189610f10565b610fe06080830188610f10565b610fed60a0830187610f10565b610ffa60c0830186610f87565b61100760e0830185610f87565b611015610100830184610f87565b9a9950505050505050505050565b600082825260208201905092915050565b7f436f6c6c61746572616c206d757374206265203e203000000000000000000000600082015250565b600061106a601683611023565b915061107582611034565b602082019050919050565b600060208201905081810360008301526110998161105d565b9050919050565b7f4475726174696f6e206d757374206265203e2030000000000000000000000000600082015250565b60006110d6601483611023565b91506110e1826110a0565b602082019050919050565b60006020820190508181036000830152611105816110c9565b9050919050565b7f4e487b7100000000000000000000000000000000000000000000000000000000600052601160045260246000fd5b600061114682610e6d565b91507fffffffffffffffffffffffffffffffffffffffffffffffffffffffffffffffff82036111785761117761110c565b5b600182019050919050565b600061118e82610e6d565b915061119983610e6d565b92508282019050808211156111b1576111b061110c565b5b92915050565b60006080820190506111cc6000830187610f10565b6111d96020830186610f10565b6111e66040830185610f10565b6111f36060830184610f10565b95945050505050565b7f4c6f616e20646f6573206e6f7420657869737400000000000000000000000000600082015250565b6000611232601383611023565b915061123d826111fc565b602082019050919050565b6000602082019050818103600083015261126181611225565b9050919050565b7f4c6f616e20616c72656164792066756e64656400000000000000000000000000600082015250565b600061129e601383611023565b91506112a982611268565b602082019050919050565b600060208201905081810360008301526112cd81611291565b9050919050565b7f496e76616c6964206c6f616e0000000000000000000000000000000000000000600082015250565b600061130a600c83611023565b9150611315826112d4565b602082019050919050565b60006020820190508181036000830152611339816112fd565b9050919050565b7f496e636f72726563742066756e64696e6720616d6f756e740000000000000000600082015250565b6000611376601883611023565b915061138182611340565b602082019050919050565b600060208201905081810360008301526113a581611369565b9050919050565b7f4e6f7420626f72726f7765720000000000000000000000000000000000000000600082015250565b60006113e2600c83611023565b91506113ed826113ac565b602082019050919050565b60006020820190508181036000830152611411816113d5565b9050919050565b7f4c6f616e206e6f742066756e6465640000000000000000000000000000000000600082015250565b600061144e600f83611023565b915061145982611418565b602082019050919050565b6000602082019050818103600083015261147d81611441565b9050919050565b7f4c6f616e20616c72656164792072657061696400000000000000000000000000600082015250565b60006114ba601383611023565b91506114c582611484565b602082019050919050565b600060208201905081810360008301526114e9816114ad565b9050919050565b7f4c6f616e20697320706173742064756520646174650000000000000000000000600082015250565b6000611526601583611023565b9150611531826114f0565b602082019050919050565b6000602082019050818103600083015261155581611519565b9050919050565b600061156782610e6d565b915061157283610e6d565b925082820261158081610e6d565b915082820484148315176115975761159661110c565b5b5092915050565b7f4e487b7100000000000000000000000000000000000000000000000000000000600052601260045260246000fd5b60006115d882610e6d565b91506115e383610e6d565b9250826115f3576115f261159e565b5b828204905092915050565b7f496e636f72726563742072657061796d656e7420616d6f756e74000000000000600082015250565b6000611634601a83611023565b915061163f826115fe565b602082019050919050565b6000602082019050818103600083015261166381611627565b9050919050565b7f4e6f74206c656e64657200000000000000000000000000000000000000000000600082015250565b60006116a0600a83611023565b91506116ab8261166a565b602082019050919050565b600060208201905081810360008301526116cf81611693565b9050919050565b7f436f6c6c61746572616c20616c726561647920636c61696d6564000000000000600082015250565b600061170c601a83611023565b9150611717826116d6565b602082019050919050565b6000602082019050818103600083015261173b816116ff565b9050919050565b7f546f6f206561726c7920746f20636c61696d20636f6c6c61746572616c000000600082015250565b6000611778601d83611023565b915061178382611742565b602082019050919050565b600060208201905081810360008301526117a78161176b565b905091905056fea2646970667358221220a4d9614343093baa5b406823f38b95ec73400edffb605f47efafca7ee63f9cfc64736f6c63430008130033",
  "linkReferences": {},
  "deployedLinkReferences": {}
}